{
  "_format": "hh-sol-artifact-1",
  "contractName": "NFTMarket",
  "sourceName": "contracts/NFTMarket.sol",
  "abi": [
    {
      "inputs": [],
      "stateMutability": "nonpayable",
      "type": "constructor"
    },
    {
      "anonymous": false,
      "inputs": [
        {
          "indexed": true,
          "internalType": "uint256",
          "name": "itemId",
          "type": "uint256"
        },
        {
          "indexed": true,
          "internalType": "address",
          "name": "nftContract",
          "type": "address"
        },
        {
          "indexed": true,
          "internalType": "uint256",
          "name": "tokenId",
          "type": "uint256"
        },
        {
          "indexed": false,
          "internalType": "address",
          "name": "seller",
          "type": "address"
        },
        {
          "indexed": false,
          "internalType": "address",
          "name": "owner",
          "type": "address"
        },
        {
          "indexed": false,
          "internalType": "uint256",
          "name": "price",
          "type": "uint256"
        },
        {
          "indexed": false,
          "internalType": "bool",
          "name": "sold",
          "type": "bool"
        }
      ],
      "name": "MarketItemCreated",
      "type": "event"
    },
    {
      "inputs": [
        {
          "internalType": "address",
          "name": "nftContract",
          "type": "address"
        },
        {
          "internalType": "uint256",
          "name": "tokenId",
          "type": "uint256"
        },
        {
          "internalType": "uint256",
          "name": "price",
          "type": "uint256"
        }
      ],
      "name": "createMarketItem",
      "outputs": [],
      "stateMutability": "payable",
      "type": "function"
    },
    {
      "inputs": [
        {
          "internalType": "address",
          "name": "nftContract",
          "type": "address"
        },
        {
          "internalType": "uint256",
          "name": "itemId",
          "type": "uint256"
        }
      ],
      "name": "createMarketSale",
      "outputs": [],
      "stateMutability": "payable",
      "type": "function"
    },
    {
      "inputs": [],
      "name": "fetchItemsCreated",
      "outputs": [
        {
          "components": [
            {
              "internalType": "uint256",
              "name": "itemId",
              "type": "uint256"
            },
            {
              "internalType": "address",
              "name": "nftContract",
              "type": "address"
            },
            {
              "internalType": "uint256",
              "name": "tokenId",
              "type": "uint256"
            },
            {
              "internalType": "address payable",
              "name": "seller",
              "type": "address"
            },
            {
              "internalType": "address payable",
              "name": "owner",
              "type": "address"
            },
            {
              "internalType": "uint256",
              "name": "price",
              "type": "uint256"
            },
            {
              "internalType": "bool",
              "name": "sold",
              "type": "bool"
            }
          ],
          "internalType": "struct NFTMarket.MarketItem[]",
          "name": "",
          "type": "tuple[]"
        }
      ],
      "stateMutability": "view",
      "type": "function"
    },
    {
      "inputs": [],
      "name": "fetchMYNFTs",
      "outputs": [
        {
          "components": [
            {
              "internalType": "uint256",
              "name": "itemId",
              "type": "uint256"
            },
            {
              "internalType": "address",
              "name": "nftContract",
              "type": "address"
            },
            {
              "internalType": "uint256",
              "name": "tokenId",
              "type": "uint256"
            },
            {
              "internalType": "address payable",
              "name": "seller",
              "type": "address"
            },
            {
              "internalType": "address payable",
              "name": "owner",
              "type": "address"
            },
            {
              "internalType": "uint256",
              "name": "price",
              "type": "uint256"
            },
            {
              "internalType": "bool",
              "name": "sold",
              "type": "bool"
            }
          ],
          "internalType": "struct NFTMarket.MarketItem[]",
          "name": "",
          "type": "tuple[]"
        }
      ],
      "stateMutability": "view",
      "type": "function"
    },
    {
      "inputs": [],
      "name": "fetchMarketItems",
      "outputs": [
        {
          "components": [
            {
              "internalType": "uint256",
              "name": "itemId",
              "type": "uint256"
            },
            {
              "internalType": "address",
              "name": "nftContract",
              "type": "address"
            },
            {
              "internalType": "uint256",
              "name": "tokenId",
              "type": "uint256"
            },
            {
              "internalType": "address payable",
              "name": "seller",
              "type": "address"
            },
            {
              "internalType": "address payable",
              "name": "owner",
              "type": "address"
            },
            {
              "internalType": "uint256",
              "name": "price",
              "type": "uint256"
            },
            {
              "internalType": "bool",
              "name": "sold",
              "type": "bool"
            }
          ],
          "internalType": "struct NFTMarket.MarketItem[]",
          "name": "",
          "type": "tuple[]"
        }
      ],
      "stateMutability": "view",
      "type": "function"
    },
    {
      "inputs": [],
      "name": "getListingPrice",
      "outputs": [
        {
          "internalType": "uint256",
          "name": "",
          "type": "uint256"
        }
      ],
      "stateMutability": "view",
      "type": "function"
    },
    {
      "inputs": [
        {
          "internalType": "uint256",
          "name": "_price",
          "type": "uint256"
        }
      ],
      "name": "setListingPrice",
      "outputs": [
        {
          "internalType": "uint256",
          "name": "",
          "type": "uint256"
        }
      ],
      "stateMutability": "nonpayable",
      "type": "function"
    }
  ],
  "bytecode": "0x60806040526658d15e1762800060045534801561001b57600080fd5b50600160008190555033600360006101000a81548173ffffffffffffffffffffffffffffffffffffffff021916908373ffffffffffffffffffffffffffffffffffffffff160217905550611a47806100746000396000f3fe6080604052600436106100705760003560e01c80636aa81b711161004e5780636aa81b71146100e75780637c726b6914610112578063c23b139e1461014f578063f064c32e1461016b57610070565b80630f08efe01461007557806312e85585146100a057806358eb2df5146100cb575b600080fd5b34801561008157600080fd5b5061008a610196565b6040516100979190611690565b60405180910390f35b3480156100ac57600080fd5b506100b56104c2565b6040516100c29190611732565b60405180910390f35b6100e560048036038101906100e091906113a3565b6104cc565b005b3480156100f357600080fd5b506100fc610830565b6040516101099190611690565b60405180910390f35b34801561011e57600080fd5b50610139600480360381019061013491906113f2565b610be0565b6040516101469190611732565b60405180910390f35b61016960048036038101906101649190611367565b610c2f565b005b34801561017757600080fd5b50610180610ee8565b60405161018d9190611690565b60405180910390f35b606060006101a46001611298565b905060006101b26002611298565b6101bc6001611298565b6101c691906117ed565b90506000808267ffffffffffffffff81111561020b577f4e487b7100000000000000000000000000000000000000000000000000000000600052604160045260246000fd5b60405190808252806020026020018201604052801561024457816020015b6102316112bc565b8152602001906001900390816102295790505b50905060005b848110156104b757600073ffffffffffffffffffffffffffffffffffffffff166005600060018461027b9190611797565b815260200190815260200160002060040160009054906101000a900473ffffffffffffffffffffffffffffffffffffffff1673ffffffffffffffffffffffffffffffffffffffff1614156104a4576000600560006001846102dc9190611797565b81526020019081526020016000206000015490506000600560008381526020019081526020016000209050806040518060e0016040529081600082015481526020016001820160009054906101000a900473ffffffffffffffffffffffffffffffffffffffff1673ffffffffffffffffffffffffffffffffffffffff1673ffffffffffffffffffffffffffffffffffffffff168152602001600282015481526020016003820160009054906101000a900473ffffffffffffffffffffffffffffffffffffffff1673ffffffffffffffffffffffffffffffffffffffff1673ffffffffffffffffffffffffffffffffffffffff1681526020016004820160009054906101000a900473ffffffffffffffffffffffffffffffffffffffff1673ffffffffffffffffffffffffffffffffffffffff1673ffffffffffffffffffffffffffffffffffffffff168152602001600582015481526020016006820160009054906101000a900460ff161515151581525050848681518110610487577f4e487b7100000000000000000000000000000000000000000000000000000000600052603260045260246000fd5b602002602001018190525060018561049f9190611797565b945050505b80806104af9061187b565b91505061024a565b508094505050505090565b6000600454905090565b60026000541415610512576040517f08c379a000000000000000000000000000000000000000000000000000000000815260040161050990611712565b60405180910390fd5b60026000819055506000811161055d576040517f08c379a0000000000000000000000000000000000000000000000000000000008152600401610554906116d2565b60405180910390fd5b60045434146105a1576040517f08c379a0000000000000000000000000000000000000000000000000000000008152600401610598906116f2565b60405180910390fd5b6105ab60016112a6565b60006105b76001611298565b90506040518060e001604052808281526020018573ffffffffffffffffffffffffffffffffffffffff1681526020018481526020013373ffffffffffffffffffffffffffffffffffffffff168152602001600073ffffffffffffffffffffffffffffffffffffffff16815260200183815260200160001515815250600560008381526020019081526020016000206000820151816000015560208201518160010160006101000a81548173ffffffffffffffffffffffffffffffffffffffff021916908373ffffffffffffffffffffffffffffffffffffffff1602179055506040820151816002015560608201518160030160006101000a81548173ffffffffffffffffffffffffffffffffffffffff021916908373ffffffffffffffffffffffffffffffffffffffff16021790555060808201518160040160006101000a81548173ffffffffffffffffffffffffffffffffffffffff021916908373ffffffffffffffffffffffffffffffffffffffff16021790555060a0820151816005015560c08201518160060160006101000a81548160ff0219169083151502179055509050508373ffffffffffffffffffffffffffffffffffffffff166323b872dd3330866040518463ffffffff1660e01b815260040161079893929190611614565b600060405180830381600087803b1580156107b257600080fd5b505af11580156107c6573d6000803e3d6000fd5b50505050828473ffffffffffffffffffffffffffffffffffffffff16827f045dfa01dcba2b36aba1d3dc4a874f4b0c5d2fbeb8d2c4b34a7d88c8d8f929d133600087600060405161081a949392919061164b565b60405180910390a4506001600081905550505050565b6060600061083e6001611298565b905060008060005b838110156108e7573373ffffffffffffffffffffffffffffffffffffffff16600560006001846108769190611797565b815260200190815260200160002060040160009054906101000a900473ffffffffffffffffffffffffffffffffffffffff1673ffffffffffffffffffffffffffffffffffffffff1614156108d4576001836108d19190611797565b92505b80806108df9061187b565b915050610846565b5060008267ffffffffffffffff81111561092a577f4e487b7100000000000000000000000000000000000000000000000000000000600052604160045260246000fd5b60405190808252806020026020018201604052801561096357816020015b6109506112bc565b8152602001906001900390816109485790505b50905060005b84811015610bd5573373ffffffffffffffffffffffffffffffffffffffff16600560006001846109999190611797565b815260200190815260200160002060040160009054906101000a900473ffffffffffffffffffffffffffffffffffffffff1673ffffffffffffffffffffffffffffffffffffffff161415610bc2576000600560006001846109fa9190611797565b81526020019081526020016000206000015490506000600560008381526020019081526020016000209050806040518060e0016040529081600082015481526020016001820160009054906101000a900473ffffffffffffffffffffffffffffffffffffffff1673ffffffffffffffffffffffffffffffffffffffff1673ffffffffffffffffffffffffffffffffffffffff168152602001600282015481526020016003820160009054906101000a900473ffffffffffffffffffffffffffffffffffffffff1673ffffffffffffffffffffffffffffffffffffffff1673ffffffffffffffffffffffffffffffffffffffff1681526020016004820160009054906101000a900473ffffffffffffffffffffffffffffffffffffffff1673ffffffffffffffffffffffffffffffffffffffff1673ffffffffffffffffffffffffffffffffffffffff168152602001600582015481526020016006820160009054906101000a900460ff161515151581525050848681518110610ba5577f4e487b7100000000000000000000000000000000000000000000000000000000600052603260045260246000fd5b6020026020010181905250600185610bbd9190611797565b945050505b8080610bcd9061187b565b915050610969565b508094505050505090565b60003073ffffffffffffffffffffffffffffffffffffffff163373ffffffffffffffffffffffffffffffffffffffff161415610c1e57816004819055505b816004819055506004549050919050565b60026000541415610c75576040517f08c379a0000000000000000000000000000000000000000000000000000000008152600401610c6c90611712565b60405180910390fd5b6002600081905550600060056000838152602001908152602001600020600501549050600060056000848152602001908152602001600020600201549050813414610cf5576040517f08c379a0000000000000000000000000000000000000000000000000000000008152600401610cec906116b2565b60405180910390fd5b6005600084815260200190815260200160002060030160009054906101000a900473ffffffffffffffffffffffffffffffffffffffff1673ffffffffffffffffffffffffffffffffffffffff166108fc349081150290604051600060405180830381858888f19350505050158015610d71573d6000803e3d6000fd5b508373ffffffffffffffffffffffffffffffffffffffff166323b872dd3033846040518463ffffffff1660e01b8152600401610daf93929190611614565b600060405180830381600087803b158015610dc957600080fd5b505af1158015610ddd573d6000803e3d6000fd5b50505050336005600085815260200190815260200160002060040160006101000a81548173ffffffffffffffffffffffffffffffffffffffff021916908373ffffffffffffffffffffffffffffffffffffffff16021790555060016005600085815260200190815260200160002060060160006101000a81548160ff021916908315150217905550610e6f60026112a6565b600360009054906101000a900473ffffffffffffffffffffffffffffffffffffffff1673ffffffffffffffffffffffffffffffffffffffff166108fc6004549081150290604051600060405180830381858888f19350505050158015610ed9573d6000803e3d6000fd5b50505060016000819055505050565b60606000610ef66001611298565b905060008060005b83811015610f9f573373ffffffffffffffffffffffffffffffffffffffff1660056000600184610f2e9190611797565b815260200190815260200160002060030160009054906101000a900473ffffffffffffffffffffffffffffffffffffffff1673ffffffffffffffffffffffffffffffffffffffff161415610f8c57600183610f899190611797565b92505b8080610f979061187b565b915050610efe565b5060008267ffffffffffffffff811115610fe2577f4e487b7100000000000000000000000000000000000000000000000000000000600052604160045260246000fd5b60405190808252806020026020018201604052801561101b57816020015b6110086112bc565b8152602001906001900390816110005790505b50905060005b8481101561128d573373ffffffffffffffffffffffffffffffffffffffff16600560006001846110519190611797565b815260200190815260200160002060030160009054906101000a900473ffffffffffffffffffffffffffffffffffffffff1673ffffffffffffffffffffffffffffffffffffffff16141561127a576000600560006001846110b29190611797565b81526020019081526020016000206000015490506000600560008381526020019081526020016000209050806040518060e0016040529081600082015481526020016001820160009054906101000a900473ffffffffffffffffffffffffffffffffffffffff1673ffffffffffffffffffffffffffffffffffffffff1673ffffffffffffffffffffffffffffffffffffffff168152602001600282015481526020016003820160009054906101000a900473ffffffffffffffffffffffffffffffffffffffff1673ffffffffffffffffffffffffffffffffffffffff1673ffffffffffffffffffffffffffffffffffffffff1681526020016004820160009054906101000a900473ffffffffffffffffffffffffffffffffffffffff1673ffffffffffffffffffffffffffffffffffffffff1673ffffffffffffffffffffffffffffffffffffffff168152602001600582015481526020016006820160009054906101000a900460ff16151515158152505084868151811061125d577f4e487b7100000000000000000000000000000000000000000000000000000000600052603260045260246000fd5b60200260200101819052506001856112759190611797565b945050505b80806112859061187b565b915050611021565b508094505050505090565b600081600001549050919050565b6001816000016000828254019250508190555050565b6040518060e0016040528060008152602001600073ffffffffffffffffffffffffffffffffffffffff16815260200160008152602001600073ffffffffffffffffffffffffffffffffffffffff168152602001600073ffffffffffffffffffffffffffffffffffffffff168152602001600081526020016000151581525090565b60008135905061134c816119e3565b92915050565b600081359050611361816119fa565b92915050565b6000806040838503121561137a57600080fd5b60006113888582860161133d565b925050602061139985828601611352565b9150509250929050565b6000806000606084860312156113b857600080fd5b60006113c68682870161133d565b93505060206113d786828701611352565b92505060406113e886828701611352565b9150509250925092565b60006020828403121561140457600080fd5b600061141284828501611352565b91505092915050565b60006114278383611568565b60e08301905092915050565b61143c81611833565b82525050565b61144b81611821565b82525050565b61145a81611821565b82525050565b600061146b8261175d565b6114758185611775565b93506114808361174d565b8060005b838110156114b1578151611498888261141b565b97506114a383611768565b925050600181019050611484565b5085935050505092915050565b6114c781611845565b82525050565b6114d681611845565b82525050565b60006114e9603c83611786565b91506114f4826118f3565b604082019050919050565b600061150c601883611786565b915061151782611942565b602082019050919050565b600061152f602483611786565b915061153a8261196b565b604082019050919050565b6000611552601f83611786565b915061155d826119ba565b602082019050919050565b60e08201600082015161157e60008501826115f6565b5060208201516115916020850182611442565b5060408201516115a460408501826115f6565b5060608201516115b76060850182611433565b5060808201516115ca6080850182611433565b5060a08201516115dd60a08501826115f6565b5060c08201516115f060c08501826114be565b50505050565b6115ff81611871565b82525050565b61160e81611871565b82525050565b60006060820190506116296000830186611451565b6116366020830185611451565b6116436040830184611605565b949350505050565b60006080820190506116606000830187611451565b61166d6020830186611451565b61167a6040830185611605565b61168760608301846114cd565b95945050505050565b600060208201905081810360008301526116aa8184611460565b905092915050565b600060208201905081810360008301526116cb816114dc565b9050919050565b600060208201905081810360008301526116eb816114ff565b9050919050565b6000602082019050818103600083015261170b81611522565b9050919050565b6000602082019050818103600083015261172b81611545565b9050919050565b60006020820190506117476000830184611605565b92915050565b6000819050602082019050919050565b600081519050919050565b6000602082019050919050565b600082825260208201905092915050565b600082825260208201905092915050565b60006117a282611871565b91506117ad83611871565b9250827fffffffffffffffffffffffffffffffffffffffffffffffffffffffffffffffff038211156117e2576117e16118c4565b5b828201905092915050565b60006117f882611871565b915061180383611871565b925082821015611816576118156118c4565b5b828203905092915050565b600061182c82611851565b9050919050565b600061183e82611851565b9050919050565b60008115159050919050565b600073ffffffffffffffffffffffffffffffffffffffff82169050919050565b6000819050919050565b600061188682611871565b91507fffffffffffffffffffffffffffffffffffffffffffffffffffffffffffffffff8214156118b9576118b86118c4565b5b600182019050919050565b7f4e487b7100000000000000000000000000000000000000000000000000000000600052601160045260246000fd5b7f506c65617365207375626d6974207468652061736b696e67207072696365206960008201527f6e206f7264657220746f20636f6d706c65746520707572636861736500000000602082015250565b7f7072696365206d7573742062652061626f7665207a65726f0000000000000000600082015250565b7f5072696365206d75737420626520657175616c20746f206c697374696e67207060008201527f7269636500000000000000000000000000000000000000000000000000000000602082015250565b7f5265656e7472616e637947756172643a207265656e7472616e742063616c6c00600082015250565b6119ec81611821565b81146119f757600080fd5b50565b611a0381611871565b8114611a0e57600080fd5b5056fea26469706673582212201ca0c5e29ceaf9c07a8f7905e50ed77d4d80c0134e17fc522bf68e33cce2f33f64736f6c63430008040033",
  "linkReferences": {},
  "deployedLinkReferences": {}
}