{
  "_format": "hh-sol-artifact-1",
  "contractName": "NFT_marketPlace",
  "sourceName": "contracts/NFT_marketPlace.sol",
  "abi": [
    {
      "inputs": [],
      "stateMutability": "nonpayable",
      "type": "constructor"
    },
    {
      "inputs": [
        {
          "internalType": "address",
          "name": "sender",
          "type": "address"
        },
        {
          "internalType": "uint256",
          "name": "tokenId",
          "type": "uint256"
        },
        {
          "internalType": "address",
          "name": "owner",
          "type": "address"
        }
      ],
      "name": "ERC721IncorrectOwner",
      "type": "error"
    },
    {
      "inputs": [
        {
          "internalType": "address",
          "name": "operator",
          "type": "address"
        },
        {
          "internalType": "uint256",
          "name": "tokenId",
          "type": "uint256"
        }
      ],
      "name": "ERC721InsufficientApproval",
      "type": "error"
    },
    {
      "inputs": [
        {
          "internalType": "address",
          "name": "approver",
          "type": "address"
        }
      ],
      "name": "ERC721InvalidApprover",
      "type": "error"
    },
    {
      "inputs": [
        {
          "internalType": "address",
          "name": "operator",
          "type": "address"
        }
      ],
      "name": "ERC721InvalidOperator",
      "type": "error"
    },
    {
      "inputs": [
        {
          "internalType": "address",
          "name": "owner",
          "type": "address"
        }
      ],
      "name": "ERC721InvalidOwner",
      "type": "error"
    },
    {
      "inputs": [
        {
          "internalType": "address",
          "name": "receiver",
          "type": "address"
        }
      ],
      "name": "ERC721InvalidReceiver",
      "type": "error"
    },
    {
      "inputs": [
        {
          "internalType": "address",
          "name": "sender",
          "type": "address"
        }
      ],
      "name": "ERC721InvalidSender",
      "type": "error"
    },
    {
      "inputs": [
        {
          "internalType": "uint256",
          "name": "tokenId",
          "type": "uint256"
        }
      ],
      "name": "ERC721NonexistentToken",
      "type": "error"
    },
    {
      "anonymous": false,
      "inputs": [
        {
          "indexed": true,
          "internalType": "address",
          "name": "owner",
          "type": "address"
        },
        {
          "indexed": true,
          "internalType": "address",
          "name": "approved",
          "type": "address"
        },
        {
          "indexed": true,
          "internalType": "uint256",
          "name": "tokenId",
          "type": "uint256"
        }
      ],
      "name": "Approval",
      "type": "event"
    },
    {
      "anonymous": false,
      "inputs": [
        {
          "indexed": true,
          "internalType": "address",
          "name": "owner",
          "type": "address"
        },
        {
          "indexed": true,
          "internalType": "address",
          "name": "operator",
          "type": "address"
        },
        {
          "indexed": false,
          "internalType": "bool",
          "name": "approved",
          "type": "bool"
        }
      ],
      "name": "ApprovalForAll",
      "type": "event"
    },
    {
      "anonymous": false,
      "inputs": [
        {
          "indexed": false,
          "internalType": "uint256",
          "name": "_fromTokenId",
          "type": "uint256"
        },
        {
          "indexed": false,
          "internalType": "uint256",
          "name": "_toTokenId",
          "type": "uint256"
        }
      ],
      "name": "BatchMetadataUpdate",
      "type": "event"
    },
    {
      "anonymous": false,
      "inputs": [
        {
          "indexed": false,
          "internalType": "uint256",
          "name": "_tokenId",
          "type": "uint256"
        }
      ],
      "name": "MetadataUpdate",
      "type": "event"
    },
    {
      "anonymous": false,
      "inputs": [
        {
          "indexed": true,
          "internalType": "uint256",
          "name": "tokenId",
          "type": "uint256"
        },
        {
          "indexed": true,
          "internalType": "address",
          "name": "owner",
          "type": "address"
        },
        {
          "indexed": false,
          "internalType": "uint256",
          "name": "listingPrice",
          "type": "uint256"
        }
      ],
      "name": "NFTCreatedOrListed",
      "type": "event"
    },
    {
      "anonymous": false,
      "inputs": [
        {
          "indexed": false,
          "internalType": "address",
          "name": "owner",
          "type": "address"
        },
        {
          "indexed": false,
          "internalType": "uint256",
          "name": "sales",
          "type": "uint256"
        }
      ],
      "name": "TopSellersInfo",
      "type": "event"
    },
    {
      "anonymous": false,
      "inputs": [
        {
          "indexed": true,
          "internalType": "address",
          "name": "from",
          "type": "address"
        },
        {
          "indexed": true,
          "internalType": "address",
          "name": "to",
          "type": "address"
        },
        {
          "indexed": true,
          "internalType": "uint256",
          "name": "tokenId",
          "type": "uint256"
        }
      ],
      "name": "Transfer",
      "type": "event"
    },
    {
      "inputs": [
        {
          "internalType": "uint256",
          "name": "",
          "type": "uint256"
        }
      ],
      "name": "NFT",
      "outputs": [
        {
          "internalType": "uint256",
          "name": "tokenId",
          "type": "uint256"
        },
        {
          "internalType": "address",
          "name": "owner",
          "type": "address"
        },
        {
          "internalType": "address",
          "name": "creatorAddress",
          "type": "address"
        },
        {
          "internalType": "bool",
          "name": "isListed",
          "type": "bool"
        },
        {
          "internalType": "uint256",
          "name": "listingPrice",
          "type": "uint256"
        },
        {
          "internalType": "string",
          "name": "tokenURI",
          "type": "string"
        }
      ],
      "stateMutability": "view",
      "type": "function"
    },
    {
      "inputs": [
        {
          "internalType": "address",
          "name": "to",
          "type": "address"
        },
        {
          "internalType": "uint256",
          "name": "tokenId",
          "type": "uint256"
        }
      ],
      "name": "approve",
      "outputs": [],
      "stateMutability": "nonpayable",
      "type": "function"
    },
    {
      "inputs": [
        {
          "internalType": "address",
          "name": "owner",
          "type": "address"
        }
      ],
      "name": "balanceOf",
      "outputs": [
        {
          "internalType": "uint256",
          "name": "",
          "type": "uint256"
        }
      ],
      "stateMutability": "view",
      "type": "function"
    },
    {
      "inputs": [
        {
          "internalType": "uint256",
          "name": "tokenId",
          "type": "uint256"
        }
      ],
      "name": "buyNFT",
      "outputs": [
        {
          "internalType": "bool",
          "name": "",
          "type": "bool"
        }
      ],
      "stateMutability": "payable",
      "type": "function"
    },
    {
      "inputs": [],
      "name": "commision",
      "outputs": [
        {
          "internalType": "uint256",
          "name": "",
          "type": "uint256"
        }
      ],
      "stateMutability": "view",
      "type": "function"
    },
    {
      "inputs": [
        {
          "internalType": "uint256",
          "name": "price",
          "type": "uint256"
        },
        {
          "internalType": "string",
          "name": "tokenURI",
          "type": "string"
        }
      ],
      "name": "createNFT",
      "outputs": [
        {
          "internalType": "uint256",
          "name": "",
          "type": "uint256"
        }
      ],
      "stateMutability": "nonpayable",
      "type": "function"
    },
    {
      "inputs": [
        {
          "internalType": "uint256",
          "name": "tokenId",
          "type": "uint256"
        }
      ],
      "name": "fetchNFT",
      "outputs": [
        {
          "components": [
            {
              "internalType": "uint256",
              "name": "tokenId",
              "type": "uint256"
            },
            {
              "internalType": "address",
              "name": "owner",
              "type": "address"
            },
            {
              "internalType": "address",
              "name": "creatorAddress",
              "type": "address"
            },
            {
              "internalType": "bool",
              "name": "isListed",
              "type": "bool"
            },
            {
              "internalType": "uint256",
              "name": "listingPrice",
              "type": "uint256"
            },
            {
              "internalType": "string",
              "name": "tokenURI",
              "type": "string"
            }
          ],
          "internalType": "struct NFT_marketPlace.nftInfo",
          "name": "",
          "type": "tuple"
        }
      ],
      "stateMutability": "view",
      "type": "function"
    },
    {
      "inputs": [
        {
          "internalType": "uint256",
          "name": "tokenId",
          "type": "uint256"
        }
      ],
      "name": "getApproved",
      "outputs": [
        {
          "internalType": "address",
          "name": "",
          "type": "address"
        }
      ],
      "stateMutability": "view",
      "type": "function"
    },
    {
      "inputs": [],
      "name": "getListedNFTS",
      "outputs": [
        {
          "components": [
            {
              "internalType": "uint256",
              "name": "tokenId",
              "type": "uint256"
            },
            {
              "internalType": "address",
              "name": "owner",
              "type": "address"
            },
            {
              "internalType": "address",
              "name": "creatorAddress",
              "type": "address"
            },
            {
              "internalType": "bool",
              "name": "isListed",
              "type": "bool"
            },
            {
              "internalType": "uint256",
              "name": "listingPrice",
              "type": "uint256"
            },
            {
              "internalType": "string",
              "name": "tokenURI",
              "type": "string"
            }
          ],
          "internalType": "struct NFT_marketPlace.nftInfo[]",
          "name": "",
          "type": "tuple[]"
        }
      ],
      "stateMutability": "view",
      "type": "function"
    },
    {
      "inputs": [],
      "name": "getMyListedNFTS",
      "outputs": [
        {
          "components": [
            {
              "internalType": "uint256",
              "name": "tokenId",
              "type": "uint256"
            },
            {
              "internalType": "address",
              "name": "owner",
              "type": "address"
            },
            {
              "internalType": "address",
              "name": "creatorAddress",
              "type": "address"
            },
            {
              "internalType": "bool",
              "name": "isListed",
              "type": "bool"
            },
            {
              "internalType": "uint256",
              "name": "listingPrice",
              "type": "uint256"
            },
            {
              "internalType": "string",
              "name": "tokenURI",
              "type": "string"
            }
          ],
          "internalType": "struct NFT_marketPlace.nftInfo[]",
          "name": "",
          "type": "tuple[]"
        }
      ],
      "stateMutability": "view",
      "type": "function"
    },
    {
      "inputs": [],
      "name": "getMyNFTS",
      "outputs": [
        {
          "components": [
            {
              "internalType": "uint256",
              "name": "tokenId",
              "type": "uint256"
            },
            {
              "internalType": "address",
              "name": "owner",
              "type": "address"
            },
            {
              "internalType": "address",
              "name": "creatorAddress",
              "type": "address"
            },
            {
              "internalType": "bool",
              "name": "isListed",
              "type": "bool"
            },
            {
              "internalType": "uint256",
              "name": "listingPrice",
              "type": "uint256"
            },
            {
              "internalType": "string",
              "name": "tokenURI",
              "type": "string"
            }
          ],
          "internalType": "struct NFT_marketPlace.nftInfo[]",
          "name": "",
          "type": "tuple[]"
        }
      ],
      "stateMutability": "view",
      "type": "function"
    },
    {
      "inputs": [
        {
          "internalType": "address",
          "name": "Id",
          "type": "address"
        }
      ],
      "name": "getOwnerNFTS",
      "outputs": [
        {
          "components": [
            {
              "internalType": "uint256",
              "name": "tokenId",
              "type": "uint256"
            },
            {
              "internalType": "address",
              "name": "owner",
              "type": "address"
            },
            {
              "internalType": "address",
              "name": "creatorAddress",
              "type": "address"
            },
            {
              "internalType": "bool",
              "name": "isListed",
              "type": "bool"
            },
            {
              "internalType": "uint256",
              "name": "listingPrice",
              "type": "uint256"
            },
            {
              "internalType": "string",
              "name": "tokenURI",
              "type": "string"
            }
          ],
          "internalType": "struct NFT_marketPlace.nftInfo[]",
          "name": "",
          "type": "tuple[]"
        }
      ],
      "stateMutability": "view",
      "type": "function"
    },
    {
      "inputs": [
        {
          "internalType": "address",
          "name": "owner",
          "type": "address"
        },
        {
          "internalType": "address",
          "name": "operator",
          "type": "address"
        }
      ],
      "name": "isApprovedForAll",
      "outputs": [
        {
          "internalType": "bool",
          "name": "",
          "type": "bool"
        }
      ],
      "stateMutability": "view",
      "type": "function"
    },
    {
      "inputs": [],
      "name": "name",
      "outputs": [
        {
          "internalType": "string",
          "name": "",
          "type": "string"
        }
      ],
      "stateMutability": "view",
      "type": "function"
    },
    {
      "inputs": [
        {
          "internalType": "uint256",
          "name": "tokenId",
          "type": "uint256"
        }
      ],
      "name": "ownerOf",
      "outputs": [
        {
          "internalType": "address",
          "name": "",
          "type": "address"
        }
      ],
      "stateMutability": "view",
      "type": "function"
    },
    {
      "inputs": [
        {
          "internalType": "uint256",
          "name": "tokenId",
          "type": "uint256"
        }
      ],
      "name": "removeNftFromMarketPlace",
      "outputs": [
        {
          "internalType": "bool",
          "name": "",
          "type": "bool"
        }
      ],
      "stateMutability": "nonpayable",
      "type": "function"
    },
    {
      "inputs": [
        {
          "internalType": "uint256",
          "name": "tokenId",
          "type": "uint256"
        },
        {
          "internalType": "uint256",
          "name": "price",
          "type": "uint256"
        }
      ],
      "name": "resellNFT",
      "outputs": [
        {
          "internalType": "string",
          "name": "",
          "type": "string"
        }
      ],
      "stateMutability": "nonpayable",
      "type": "function"
    },
    {
      "inputs": [
        {
          "internalType": "address",
          "name": "from",
          "type": "address"
        },
        {
          "internalType": "address",
          "name": "to",
          "type": "address"
        },
        {
          "internalType": "uint256",
          "name": "tokenId",
          "type": "uint256"
        }
      ],
      "name": "safeTransferFrom",
      "outputs": [],
      "stateMutability": "nonpayable",
      "type": "function"
    },
    {
      "inputs": [
        {
          "internalType": "address",
          "name": "from",
          "type": "address"
        },
        {
          "internalType": "address",
          "name": "to",
          "type": "address"
        },
        {
          "internalType": "uint256",
          "name": "tokenId",
          "type": "uint256"
        },
        {
          "internalType": "bytes",
          "name": "data",
          "type": "bytes"
        }
      ],
      "name": "safeTransferFrom",
      "outputs": [],
      "stateMutability": "nonpayable",
      "type": "function"
    },
    {
      "inputs": [
        {
          "internalType": "address",
          "name": "operator",
          "type": "address"
        },
        {
          "internalType": "bool",
          "name": "approved",
          "type": "bool"
        }
      ],
      "name": "setApprovalForAll",
      "outputs": [],
      "stateMutability": "nonpayable",
      "type": "function"
    },
    {
      "inputs": [
        {
          "internalType": "uint256",
          "name": "val",
          "type": "uint256"
        }
      ],
      "name": "setCommision",
      "outputs": [
        {
          "internalType": "bool",
          "name": "",
          "type": "bool"
        }
      ],
      "stateMutability": "nonpayable",
      "type": "function"
    },
    {
      "inputs": [
        {
          "internalType": "bytes4",
          "name": "interfaceId",
          "type": "bytes4"
        }
      ],
      "name": "supportsInterface",
      "outputs": [
        {
          "internalType": "bool",
          "name": "",
          "type": "bool"
        }
      ],
      "stateMutability": "view",
      "type": "function"
    },
    {
      "inputs": [],
      "name": "symbol",
      "outputs": [
        {
          "internalType": "string",
          "name": "",
          "type": "string"
        }
      ],
      "stateMutability": "view",
      "type": "function"
    },
    {
      "inputs": [
        {
          "internalType": "uint256",
          "name": "tokenId",
          "type": "uint256"
        }
      ],
      "name": "tokenURI",
      "outputs": [
        {
          "internalType": "string",
          "name": "",
          "type": "string"
        }
      ],
      "stateMutability": "view",
      "type": "function"
    },
    {
      "inputs": [
        {
          "internalType": "address",
          "name": "from",
          "type": "address"
        },
        {
          "internalType": "address",
          "name": "to",
          "type": "address"
        },
        {
          "internalType": "uint256",
          "name": "tokenId",
          "type": "uint256"
        }
      ],
      "name": "transferFrom",
      "outputs": [],
      "stateMutability": "nonpayable",
      "type": "function"
    }
  ],
  "bytecode": "0x60806040526608e1bc9bf040006009553480156200001c57600080fd5b506040518060400160405280600f81526020016e4e4654204d61726b6574506c61636560881b815250604051806040016040528060068152602001651391951352d560d21b81525081600090816200007591906200014e565b5060016200008482826200014e565b50506000600755506001600855600a80546001600160a01b031916331790556200021a565b634e487b7160e01b600052604160045260246000fd5b600181811c90821680620000d457607f821691505b602082108103620000f557634e487b7160e01b600052602260045260246000fd5b50919050565b601f8211156200014957600081815260208120601f850160051c81016020861015620001245750805b601f850160051c820191505b81811015620001455782815560010162000130565b5050505b505050565b81516001600160401b038111156200016a576200016a620000a9565b62000182816200017b8454620000bf565b84620000fb565b602080601f831160018114620001ba5760008415620001a15750858301515b600019600386901b1c1916600185901b17855562000145565b600085815260208120601f198616915b82811015620001eb57888601518255948401946001909101908401620001ca565b50858210156200020a5787850151600019600388901b60f8161c191681555b5050505050600190811b01905550565b6129cb806200022a6000396000f3fe6080604052600436106101665760003560e01c806395d89b41116100d1578063b96f24951161008a578063deb1250d11610064578063deb1250d14610431578063e985e9c51461045e578063e9e8e9621461047e578063f32b51241461049357600080fd5b8063b96f2495146103e7578063c2961223146103fc578063c87b56dd1461041157600080fd5b806395d89b411461033c578063a22cb46514610351578063a9852ab614610371578063ac3dfc7314610391578063b88d4fde146103b1578063b95edbf9146103d157600080fd5b806333f418b81161012357806333f418b81461025c57806342842e0e1461028e5780634e69349e146102ae57806351ed8288146102db5780636352211e146102ee57806370a082311461030e57600080fd5b806301ffc9a71461016b57806306fdde03146101a0578063081812fc146101c25780630918789a146101fa578063095ea7b31461021a57806323b872dd1461023c575b600080fd5b34801561017757600080fd5b5061018b610186366004612310565b6104b3565b60405190151581526020015b60405180910390f35b3480156101ac57600080fd5b506101b56104de565b604051610197919061237d565b3480156101ce57600080fd5b506101e26101dd366004612390565b610570565b6040516001600160a01b039091168152602001610197565b34801561020657600080fd5b5061018b610215366004612390565b610599565b34801561022657600080fd5b5061023a6102353660046123c5565b610621565b005b34801561024857600080fd5b5061023a6102573660046123ef565b610630565b34801561026857600080fd5b5061027c610277366004612390565b6106bb565b6040516101979695949392919061242b565b34801561029a57600080fd5b5061023a6102a93660046123ef565b61078d565b3480156102ba57600080fd5b506102ce6102c9366004612478565b6107ad565b60405161019791906124ea565b61018b6102e9366004612390565b610a3a565b3480156102fa57600080fd5b506101e2610309366004612390565b610ce7565b34801561031a57600080fd5b5061032e610329366004612478565b610cf2565b604051908152602001610197565b34801561034857600080fd5b506101b5610d3a565b34801561035d57600080fd5b5061023a61036c36600461254c565b610d49565b34801561037d57600080fd5b5061018b61038c366004612390565b610d54565b34801561039d57600080fd5b506101b56103ac366004612588565b610dba565b3480156103bd57600080fd5b5061023a6103cc366004612636565b610f85565b3480156103dd57600080fd5b5061032e60095481565b3480156103f357600080fd5b506102ce610f9d565b34801561040857600080fd5b506102ce6111b3565b34801561041d57600080fd5b506101b561042c366004612390565b61140a565b34801561043d57600080fd5b5061045161044c366004612390565b61151b565b60405161019791906126b2565b34801561046a57600080fd5b5061018b6104793660046126c5565b611621565b34801561048a57600080fd5b506102ce61164f565b34801561049f57600080fd5b5061032e6104ae3660046126f8565b6118a8565b60006001600160e01b03198216632483248360e11b14806104d857506104d882611a10565b92915050565b6060600080546104ed90612753565b80601f016020809104026020016040519081016040528092919081815260200182805461051990612753565b80156105665780601f1061053b57610100808354040283529160200191610566565b820191906000526020600020905b81548152906001019060200180831161054957829003601f168201915b5050505050905090565b600061057b82611a60565b506000828152600460205260409020546001600160a01b03166104d8565b6000818152600b60205260408120600101546001600160a01b031633146105ff5760405162461bcd60e51b81526020600482015260156024820152741e5bdd48191bdb9d081bdddb881d1a1a5cc81b999d605a1b60448201526064015b60405180910390fd5b506000908152600b60205260409020600201805460ff60a01b19169055600190565b61062c828233611a99565b5050565b6001600160a01b03821661065a57604051633250574960e11b8152600060048201526024016105f6565b6000610667838333611aa6565b9050836001600160a01b0316816001600160a01b0316146106b5576040516364283d7b60e01b81526001600160a01b03808616600483015260248201849052821660448201526064016105f6565b50505050565b600b602052600090815260409020805460018201546002830154600384015460048501805494956001600160a01b039485169594841694600160a01b90940460ff169390919061070a90612753565b80601f016020809104026020016040519081016040528092919081815260200182805461073690612753565b80156107835780601f1061075857610100808354040283529160200191610783565b820191906000526020600020905b81548152906001019060200180831161076657829003601f168201915b5050505050905086565b6107a883838360405180602001604052806000815250610f85565b505050565b60606000805b600854811015610839576000818152600b6020526040902060020154600160a01b900460ff16806107ec5750336001600160a01b038516145b801561081457506000818152600b60205260409020600101546001600160a01b038581169116145b156108275781610823816127a3565b9250505b80610831816127a3565b9150506107b3565b5060008167ffffffffffffffff811115610855576108556125aa565b60405190808252806020026020018201604052801561088e57816020015b61087b6122ad565b8152602001906001900390816108735790505b5090506000805b600854811015610a30576000818152600b6020526040902060020154600160a01b900460ff16806108ce5750336001600160a01b038716145b80156108f657506000818152600b60205260409020600101546001600160a01b038781169116145b15610a1e576000818152600b6020908152604091829020825160c0810184528154815260018201546001600160a01b0390811693820193909352600282015492831693810193909352600160a01b90910460ff16151560608301526003810154608083015260048101805460a08401919061097090612753565b80601f016020809104026020016040519081016040528092919081815260200182805461099c90612753565b80156109e95780601f106109be576101008083540402835291602001916109e9565b820191906000526020600020905b8154815290600101906020018083116109cc57829003601f168201915b505050505081525050838381518110610a0457610a046127bc565b60200260200101819052508180610a1a906127a3565b9250505b80610a28816127a3565b915050610895565b5090949350505050565b6000818152600b6020526040812060020154600160a01b900460ff161515600114610aba5760405162461bcd60e51b815260206004820152602a60248201527f54686973204e4654206973206e6f74206c6973746564206f6e20746865206d616044820152693935b2ba383630b1b29760b11b60648201526084016105f6565b6009546000838152600b6020526040902060030154610ad991906127d2565b341015610b285760405162461bcd60e51b815260206004820181905260248201527f4e6f7420656e6f75676820457468657220746f206275792074686973204e465460448201526064016105f6565b6000828152600b6020526040902060010154336001600160a01b0390911603610b9d5760405162461bcd60e51b815260206004820152602160248201527f596f752063616e27742062757920796f7572206f776e204e465420416761696e6044820152602160f81b60648201526084016105f6565b6000828152600b6020526040902060010154610bc3906001600160a01b03163384611b9f565b6000828152600b6020526040808220600181015460039091015491516001600160a01b0390911692839280156108fc02929091818181858888f19350505050158015610c13573d6000803e3d6000fd5b50600a546009546040516001600160a01b039092169181156108fc0291906000818181858888f19350505050158015610c50573d6000803e3d6000fd5b506000838152600b6020908152604091829020600181015460039091015483516001600160a01b039092168252918101919091527fcdb9429b1a166478a39515b9d7c0f63e93686f164dd70d16414f5816e54a682a910160405180910390a150506000908152600b60205260409020600180820180546001600160a01b031916331790556002909101805460ff60a01b1916905590565b60006104d882611a60565b60006001600160a01b038216610d1e576040516322718ad960e21b8152600060048201526024016105f6565b506001600160a01b031660009081526003602052604090205490565b6060600180546104ed90612753565b61062c338383611c4f565b600a546000906001600160a01b03163314610db15760405162461bcd60e51b815260206004820152601e60248201527f4f6e6c79206f776e65722063616e20736574546865436f6d6d6973696f6e000060448201526064016105f6565b50600955600190565b6000828152600b60205260409020600101546060906001600160a01b03163314610e455760405162461bcd60e51b815260206004820152603660248201527f596f752063616e27742073656c6c207468697320746f6b656e206173206974206044820152753237b2b9b713ba103132b637b733903a37903cb7ba9760511b60648201526084016105f6565b6000838152600b6020526040902060020154600160a01b900460ff1615610eae5760405162461bcd60e51b815260206004820152601b60248201527f54686973204e465420697320616c7265616479206c69737465642e000000000060448201526064016105f6565b60008211610efe5760405162461bcd60e51b815260206004820152601c60248201527f5072696365206d7573742062652067726561746572207468616e20300000000060448201526064016105f6565b6000838152600b60205260409081902060028101805460ff60a01b1916600160a01b17905560030183905551339084907f63ed0349d75a3f799c687ea2cd41bed2284a1f7764e6d482d7a861d87ba4620190610f5d9086815260200190565b60405180910390a3604051806060016040528060218152602001612975602191399392505050565b610f90848484610630565b6106b53385858585611cee565b60606000805b600854811015610fee576000818152600b6020526040902060020154600160a01b900460ff1615610fdc5781610fd8816127a3565b9250505b80610fe6816127a3565b915050610fa3565b5060008167ffffffffffffffff81111561100a5761100a6125aa565b60405190808252806020026020018201604052801561104357816020015b6110306122ad565b8152602001906001900390816110285790505b5090506000805b6008548110156111aa576000818152600b6020526040902060020154600160a01b900460ff1615611198576000818152600b6020908152604091829020825160c0810184528154815260018201546001600160a01b0390811693820193909352600282015492831693810193909352600160a01b90910460ff16151560608301526003810154608083015260048101805460a0840191906110ea90612753565b80601f016020809104026020016040519081016040528092919081815260200182805461111690612753565b80156111635780601f1061113857610100808354040283529160200191611163565b820191906000526020600020905b81548152906001019060200180831161114657829003601f168201915b50505050508152505083838151811061117e5761117e6127bc565b60200260200101819052508180611194906127a3565b9250505b806111a2816127a3565b91505061104a565b50909392505050565b60606000805b600854811015611229576000818152600b6020526040902060020154600160a01b900460ff16801561120457506000818152600b60205260409020600101546001600160a01b031633145b156112175781611213816127a3565b9250505b80611221816127a3565b9150506111b9565b5060008167ffffffffffffffff811115611245576112456125aa565b60405190808252806020026020018201604052801561127e57816020015b61126b6122ad565b8152602001906001900390816112635790505b5090506000805b6008548110156111aa576000818152600b6020526040902060020154600160a01b900460ff1680156112d057506000818152600b60205260409020600101546001600160a01b031633145b156113f8576000818152600b6020908152604091829020825160c0810184528154815260018201546001600160a01b0390811693820193909352600282015492831693810193909352600160a01b90910460ff16151560608301526003810154608083015260048101805460a08401919061134a90612753565b80601f016020809104026020016040519081016040528092919081815260200182805461137690612753565b80156113c35780601f10611398576101008083540402835291602001916113c3565b820191906000526020600020905b8154815290600101906020018083116113a657829003601f168201915b5050505050815250508383815181106113de576113de6127bc565b602002602001018190525081806113f4906127a3565b9250505b80611402816127a3565b915050611285565b606061141582611a60565b506000828152600660205260408120805461142f90612753565b80601f016020809104026020016040519081016040528092919081815260200182805461145b90612753565b80156114a85780601f1061147d576101008083540402835291602001916114a8565b820191906000526020600020905b81548152906001019060200180831161148b57829003601f168201915b5050505050905060006114c660408051602081019091526000815290565b905080516000036114d8575092915050565b81511561150a5780826040516020016114f29291906127e5565b60405160208183030381529060405292505050919050565b61151384611e19565b949350505050565b6115236122ad565b6000828152600b6020908152604091829020825160c0810184528154815260018201546001600160a01b0390811693820193909352600282015492831693810193909352600160a01b90910460ff16151560608301526003810154608083015260048101805460a08401919061159890612753565b80601f01602080910402602001604051908101604052809291908181526020018280546115c490612753565b80156116115780601f106115e657610100808354040283529160200191611611565b820191906000526020600020905b8154815290600101906020018083116115f457829003601f168201915b5050505050815250509050919050565b6001600160a01b03918216600090815260056020908152604080832093909416825291909152205460ff1690565b60606000805b6008548110156116c6576000818152600b6020526040902060020154600160a01b900460ff161580156116a157506000818152600b60205260409020600101546001600160a01b031633145b156116b457816116b0816127a3565b9250505b806116be816127a3565b915050611655565b5060008167ffffffffffffffff8111156116e2576116e26125aa565b60405190808252806020026020018201604052801561171b57816020015b6117086122ad565b8152602001906001900390816117005790505b5090506000805b6008548110156111aa576000818152600b6020526040902060020154600160a01b900460ff1615801561176e57506000818152600b60205260409020600101546001600160a01b031633145b15611896576000818152600b6020908152604091829020825160c0810184528154815260018201546001600160a01b0390811693820193909352600282015492831693810193909352600160a01b90910460ff16151560608301526003810154608083015260048101805460a0840191906117e890612753565b80601f016020809104026020016040519081016040528092919081815260200182805461181490612753565b80156118615780601f1061183657610100808354040283529160200191611861565b820191906000526020600020905b81548152906001019060200180831161184457829003601f168201915b50505050508152505083838151811061187c5761187c6127bc565b60200260200101819052508180611892906127a3565b9250505b806118a0816127a3565b915050611722565b60008083116118f95760405162461bcd60e51b815260206004820152601e60248201527f50726963652073686f756c642062652067726561746572207468616e2030000060448201526064016105f6565b6008546119063382611e8e565b6119108184611ea8565b6040805160c081018252828152336020808301828152838501928352600160608501818152608086018b815260a087018b815260008a8152600b9096529790942086518155925191830180546001600160a01b039384166001600160a01b0319909116179055935160028301805495511515600160a01b026001600160a81b0319909616919092161793909317909255516003820155915190919060048201906119ba908261285a565b505060088054915060006119cd836127a3565b9091555050604051848152339082907f63ed0349d75a3f799c687ea2cd41bed2284a1f7764e6d482d7a861d87ba462019060200160405180910390a39392505050565b60006001600160e01b031982166380ac58cd60e01b1480611a4157506001600160e01b03198216635b5e139f60e01b145b806104d857506301ffc9a760e01b6001600160e01b03198316146104d8565b6000818152600260205260408120546001600160a01b0316806104d857604051637e27328960e01b8152600481018490526024016105f6565b6107a88383836001611ef8565b6000828152600260205260408120546001600160a01b0390811690831615611ad357611ad3818486611ffe565b6001600160a01b03811615611b1157611af0600085600080611ef8565b6001600160a01b038116600090815260036020526040902080546000190190555b6001600160a01b03851615611b40576001600160a01b0385166000908152600360205260409020805460010190555b60008481526002602052604080822080546001600160a01b0319166001600160a01b0389811691821790925591518793918516917fddf252ad1be2c89b69c2b068fc378daa952ba7f163c4a11628f55a4df523b3ef91a4949350505050565b6001600160a01b038216611bc957604051633250574960e11b8152600060048201526024016105f6565b6000611bd783836000611aa6565b90506001600160a01b038116611c0357604051637e27328960e01b8152600481018390526024016105f6565b836001600160a01b0316816001600160a01b0316146106b5576040516364283d7b60e01b81526001600160a01b03808616600483015260248201849052821660448201526064016105f6565b6001600160a01b038216611c8157604051630b61174360e31b81526001600160a01b03831660048201526024016105f6565b6001600160a01b03838116600081815260056020908152604080832094871680845294825291829020805460ff191686151590811790915591519182527f17307eab39ab6107e8899845ad3d59bd9653f200f220920489ca2b5937696c31910160405180910390a3505050565b6001600160a01b0383163b15611e1257604051630a85bd0160e11b81526001600160a01b0384169063150b7a0290611d3090889088908790879060040161291a565b6020604051808303816000875af1925050508015611d6b575060408051601f3d908101601f19168201909252611d6891810190612957565b60015b611dd4573d808015611d99576040519150601f19603f3d011682016040523d82523d6000602084013e611d9e565b606091505b508051600003611dcc57604051633250574960e11b81526001600160a01b03851660048201526024016105f6565b805181602001fd5b6001600160e01b03198116630a85bd0160e11b14611e1057604051633250574960e11b81526001600160a01b03851660048201526024016105f6565b505b5050505050565b6060611e2482611a60565b506000611e3c60408051602081019091526000815290565b90506000815111611e5c5760405180602001604052806000815250611e87565b80611e6684612062565b604051602001611e779291906127e5565b6040516020818303038152906040525b9392505050565b61062c8282604051806020016040528060008152506120f5565b6000828152600660205260409020611ec0828261285a565b506040518281527ff8e1a15aba9398e019f0b49df1a4fde98ee17ae345cb5f6b5e2c27f5033e8ce79060200160405180910390a15050565b8080611f0c57506001600160a01b03821615155b15611fce576000611f1c84611a60565b90506001600160a01b03831615801590611f485750826001600160a01b0316816001600160a01b031614155b8015611f5b5750611f598184611621565b155b15611f845760405163a9fbf51f60e01b81526001600160a01b03841660048201526024016105f6565b8115611fcc5783856001600160a01b0316826001600160a01b03167f8c5be1e5ebec7d5bd14f71427d1e84f3dd0314c0f7b2291e5b200ac8c7c3b92560405160405180910390a45b505b5050600090815260046020526040902080546001600160a01b0319166001600160a01b0392909216919091179055565b61200983838361210d565b6107a8576001600160a01b03831661203757604051637e27328960e01b8152600481018290526024016105f6565b60405163177e802f60e01b81526001600160a01b0383166004820152602481018290526044016105f6565b6060600061206f83612170565b600101905060008167ffffffffffffffff81111561208f5761208f6125aa565b6040519080825280601f01601f1916602001820160405280156120b9576020820181803683370190505b5090508181016020015b600019016f181899199a1a9b1b9c1cb0b131b232b360811b600a86061a8153600a85049450846120c357509392505050565b6120ff8383612248565b6107a8336000858585611cee565b60006001600160a01b038316158015906115135750826001600160a01b0316846001600160a01b0316148061214757506121478484611621565b806115135750506000908152600460205260409020546001600160a01b03908116911614919050565b60008072184f03e93ff9f4daa797ed6e38ed64bf6a1f0160401b83106121af5772184f03e93ff9f4daa797ed6e38ed64bf6a1f0160401b830492506040015b6d04ee2d6d415b85acef810000000083106121db576d04ee2d6d415b85acef8100000000830492506020015b662386f26fc1000083106121f957662386f26fc10000830492506010015b6305f5e1008310612211576305f5e100830492506008015b612710831061222557612710830492506004015b60648310612237576064830492506002015b600a83106104d85760010192915050565b6001600160a01b03821661227257604051633250574960e11b8152600060048201526024016105f6565b600061228083836000611aa6565b90506001600160a01b038116156107a8576040516339e3563760e11b8152600060048201526024016105f6565b6040518060c001604052806000815260200160006001600160a01b0316815260200160006001600160a01b0316815260200160001515815260200160008152602001606081525090565b6001600160e01b03198116811461230d57600080fd5b50565b60006020828403121561232257600080fd5b8135611e87816122f7565b60005b83811015612348578181015183820152602001612330565b50506000910152565b6000815180845261236981602086016020860161232d565b601f01601f19169290920160200192915050565b602081526000611e876020830184612351565b6000602082840312156123a257600080fd5b5035919050565b80356001600160a01b03811681146123c057600080fd5b919050565b600080604083850312156123d857600080fd5b6123e1836123a9565b946020939093013593505050565b60008060006060848603121561240457600080fd5b61240d846123a9565b925061241b602085016123a9565b9150604084013590509250925092565b8681526001600160a01b0386811660208301528516604082015283151560608201526080810183905260c060a0820181905260009061246c90830184612351565b98975050505050505050565b60006020828403121561248a57600080fd5b611e87826123a9565b805182526000602082015160018060a01b03808216602086015280604085015116604086015250506060820151151560608401526080820151608084015260a082015160c060a085015261151360c0850182612351565b6000602080830181845280855180835260408601915060408160051b870101925083870160005b8281101561253f57603f1988860301845261252d858351612493565b94509285019290850190600101612511565b5092979650505050505050565b6000806040838503121561255f57600080fd5b612568836123a9565b91506020830135801515811461257d57600080fd5b809150509250929050565b6000806040838503121561259b57600080fd5b50508035926020909101359150565b634e487b7160e01b600052604160045260246000fd5b600067ffffffffffffffff808411156125db576125db6125aa565b604051601f8501601f19908116603f01168101908282118183101715612603576126036125aa565b8160405280935085815286868601111561261c57600080fd5b858560208301376000602087830101525050509392505050565b6000806000806080858703121561264c57600080fd5b612655856123a9565b9350612663602086016123a9565b925060408501359150606085013567ffffffffffffffff81111561268657600080fd5b8501601f8101871361269757600080fd5b6126a6878235602084016125c0565b91505092959194509250565b602081526000611e876020830184612493565b600080604083850312156126d857600080fd5b6126e1836123a9565b91506126ef602084016123a9565b90509250929050565b6000806040838503121561270b57600080fd5b82359150602083013567ffffffffffffffff81111561272957600080fd5b8301601f8101851361273a57600080fd5b612749858235602084016125c0565b9150509250929050565b600181811c9082168061276757607f821691505b60208210810361278757634e487b7160e01b600052602260045260246000fd5b50919050565b634e487b7160e01b600052601160045260246000fd5b6000600182016127b5576127b561278d565b5060010190565b634e487b7160e01b600052603260045260246000fd5b808201808211156104d8576104d861278d565b600083516127f781846020880161232d565b83519083019061280b81836020880161232d565b01949350505050565b601f8211156107a857600081815260208120601f850160051c8101602086101561283b5750805b601f850160051c820191505b81811015611e1057828155600101612847565b815167ffffffffffffffff811115612874576128746125aa565b612888816128828454612753565b84612814565b602080601f8311600181146128bd57600084156128a55750858301515b600019600386901b1c1916600185901b178555611e10565b600085815260208120601f198616915b828110156128ec578886015182559484019460019091019084016128cd565b508582101561290a5787850151600019600388901b60f8161c191681555b5050505050600190811b01905550565b6001600160a01b038581168252841660208201526040810183905260806060820181905260009061294d90830184612351565b9695505050505050565b60006020828403121561296957600080fd5b8151611e87816122f756fe5375636365737366756c6c79206c6973746564206f6e20746865206d61726b6574a2646970667358221220d8a5e69b4fc3d7839e9e6b0c1ea6f94014410435f71f0bd4a467d61397d1c86064736f6c63430008140033",
  "linkReferences": {},
  "deployedLinkReferences": {}
}